:1002F20046696E6765723A004572726F72004C6FA2
:10030200636B3A2020204964656E746966794C6F8C
:10031200636B3A202020496E7075742020201001F2
:10032200FFFFFFFF0100071300000000001B100188
:10033200FFFFFFFF0100071200000000001A0C017E
:10034200FFFFFFFF01000301000500000D01FFFF99
:10035200FFFF01000402010008000D01FFFFFFFF83
:1003620001000402020009001101FFFFFFFF01006A
:10037200080401000000650073000C01FFFFFFFF8D
:1003820001000305000900000F01FFFFFFFF01004C
:100392000606020000000F000D01FFFFFFFF010033
:1003A200041900001E002D01FFFFFFFF01002418A9
:1003B200000000000000000000000000000000003B
:1003C200000000000000000000000000000000002B
:1003D20000003D001001FFFFFFFF0100070C0000BD
:1003E200000100150C01FFFFFFFF0100030D0011CA
:1005FA0002080000020C0000020A000002140000B7
:10060A00060E000000000000C101C102C10001166F
:10061A000060400000000000000000000000000030
:10062A0000000000000000000000000000000000C0
:10063A0000000000000000000000000000000000B0
:10064A0000000000000000000000000000000000A0
:05065A0000000000009B
:1007AA00C2A07F647E001207BAD2A01207BAC2A002
:1007BA00E4FDFCC3ED9FEC9E5015E4FBFA0BBB0075
:0F07CA00010AEB64784A70F50DBD00010C80E464
:0107D90022FD
:0A091700C2998F993099FDC2992210
:040016007BFF7D3CB3
:08001A008B268A2789288D2915
:10002200E4F52AF52BFEF52CF52DF52EC203C204BC
:10003200C2057FEF1209177F01120917AB26AA2703
:10004200A92812058CFF74012528F528E43527F527
:100052002774012528F528E43527F527EF14F52A1A
:10006200E52A64016019AB260528E528AA27700253
:10007200052714F912058CFF120917152A80E1D2FF
:1000820003E4F516752A4074FF252AF582E434FF4D
:10009200F583E4F0D52AF0200303020198C203C2DB
:1000A20004C205E4F52AF514F51520980302017E31
:1000B20085992BC298E52BB4EF1120040EE4F52AA2
:1000C200900000E52BF0752D0180DFE52D640170B5
:1000D2002AE52B6401600DE4F52DC203C204C205BA
:1000E200F52A80C6752D02052A7400252AF582E4B8
:1000F2003400F583E52BF0D20480AFE52D64027065
:100102007B300478052A7400252AF582E43400F550
:1001120083E52BF0E52AC3940640107400252AF5E6
:1001220082E43400F583E0252EF52EE52AB4080892
:10013200900008E0F52CD205300541E52C2408FF9B
:10014200E433FEE52A6F7001EE703174FF252AF563
:1001520082E434FFF583E0FFC3E52E9FF52E7400A1
:10016200252AF582E43400F583E0652E7E00EE60F8
:1001720004C2038002D203E4F52D8017D3E515955E
:1001820029E5149400500CE52A943F500620000300
:080192000200AC852A16A2034D
:01019A002242
:10083000E4FC7BFF7A0379207D1412001A500DE549
:1008400016B40B08900009E07002D3220CECC3949C
:030850000240DF84
:010853002282
:1008B70012083050167BFF7A0379E67D3212001A50
:0C08C7007BFF7A0379A87D1412001A222E
:10066000AC077BFF7A0379407D5912001A504AE5A6
:1006700016640B7044900009E0703EEC6401701A3F
:100680007A03794E120016500EE516B40B0990004D
:1006900009E070037F01227F0022EC6402701D7A62
:1006A00003795C120016500EE516B40B0990000990
:0F06B000E070037F01227F00227F00227F002263
:1007DA007BFF7A03796A7D3C12001A501CE516B435
:1007EA000F17900009E07011A3E0FEA3E07C00243B
:0B07FA0000F50BEC3EF50AD322C322F1
:1006BF00E4F522F523F524F5252001357F011206F7
:1006CF0060EF6401701A1207DAE433752200F52324
:1006DF00640145227005AE0AAF0B227E037FE9222B
:1006EF000525E52570020524C39414E524940040E4
:0406FF00C8E4FEFF4E
:0107030022D3
:02070400AC0740
:10070600E4FEEE90038A93FD74002EF582E4340035
:10071600F583EDF00EBE10EAE490000BF0ECA3F0CA
:1007260090000EE02CF07B017A0079007D461200E5
:050736001A500122C36E
:01073B00229B
:10050800E4F522F5237F011206608F22E522B4016B
:10051800028010E52270EE0523E523C3942840E508
:100528007F0022E4F523C2A07F64FE1207BAD2A09E
:100538007FD07E071207BA7F021206608F22E5225B
:100548006401702F7BFF7A03797C7D2812001A5092
:1005580010E516B40B0B900009E07005FE7F0180D2
:10056800047E007F00EF4E7002FF221207AAD2A07D
:100578007F0122E522B401BF0523E523C394194076
:03058800B67F003B
:01058B00224D
:10047E00E4F522F5238E228F237D01FF1208787B6F
:10048E00FF7A0279F21208ED7D08E4FF120878C3B4
:10049E00E52394E8E5229403504CAE22AF237C0072
:1004AE007D641205A5EF2430F50EAE22AF237C003D
:1004BE007D641205A57E007F0ACFCDCFCECCCE12A5
:1004CE0005A5EF2430F50FAE22AF237C007D0A1276
:1004DE0005A5ED2430F5107511207512207B007ADC
:1004EE0000790E1208EDE523B4E90EE522B40309F6
:0904FE007BFF7A0279FA1208ED85
:0105070022D1
:10080500E4FDFF1208787BFF20010D7A03790012C1
:1008150008EDC291D290800B7A0379101208EDD2BF
:0B08250091C290C200E4FFFE02047EBE
:10019B00E4F521D2A9758A97758CBD7F05FE1207F0
:1001AB00BAC2A61207BA1208547F057E001207BA0C
:1001BB00E4FDFF1208787BFF7A0379001208ED75D6
:1001CB009850E4F587758921758DFD758BFDD28E61
:1001DB00D28CC288D28AD2A8D2AAD2AFF521120869
:1001EB00305015C291C2A0E4FFFE12047E7F2C7E1C
:1001FB00011207BAD2A08006D290D291800020B40F
:10020B005C7F0A7E001207BA20B45230B4FD12088C
:10021B0030502F30012CC3E50994E8E508940350C6
:10022B0021120508EF64017034E50904FF1207047D
:10023B00502B0509E50970020508FFAE0812047E74
:10024B00801BC2A0E4F5217F647E001207BAB29036
:10025B000521E521C3940840EEC290D2A0200146AF
:10026B001206BF8E0C8F0DC3E50D9401E50C9400A7
:10027B004019D3E50D94E8E50C9403500E12047E5F
:10028B00C2A07F647E001207BAD2A0E50D64E970AC
:10029B0004E50C6403700FAF0DAE0C12047E120755
:1002AB00AA1207B3D2A0300230C2021208B7C29012
:1002BB00D291D201E4FDFF1208787BFF7A0379100B
:1002CB001208EDE4FFFE12047EC2A07F207E031213
:1002DB0007BAD2A0E4F508F50920000302020912BF
:0702EB000805C20002020930
:030003000207747D
:10077400C0E0C0D075D000C002C003C004C005C032
:1007840006C00720B20F7F0A7E001207BA20B20506
:1007940030B2FDD202D007D006D005D004D003D0A9
:0607A40002D0D0D0E032CB
:03000B00020904E3
:10090400C0E0758A97758CBD0515E5157002051450
:03091400D0E032FE
:0300130002073CA5
:10073C00C0E0C0D075D000C002C003C004C005C06A
:10074C0006C00720B3117F0A7E001207BA20B30738
:10075C0030B3FDB201D200D007D006D005D004D002
:08076C0003D002D0D0D0E0322E
:10089900D3EF9400EE940040147D6E7C00ED1D7042
:0D08A900011CED4C70F7EF1F70E61E80E3A0
:0108B600221F
:1008D300A20392A78524807F057E00120899D2A5E2
:0A08E3007F057E00120899C2A522CD
:0A092100C203EF4408F5240208D3D6
:0A092B00C203EF4404F5240208D3D0
:10085400C2A5C2037524381208D3C2037524381202
:1008640008D37F04120921C2037524011208D37F1F
:040874000202092B48
:10087800AB05AA07EB700AC203EA4480F524120804
:10088800D3BB010CC203EA24C04480F5241208D368
:01089800223D
:1008ED0012058CFF6010D203F5241208D374012970
:0708FD00F9E43AFA80EA2257
:030000000203F206
:0C03F200787FE4F6D8FD75812E020439F6
:10058C00BB010689828A83E0225002E722BBFE026D
:09059C00E32289828A83E49322A0
:1005A500BC000BBE0029EF8DF084FFADF022E4CC3A
:1005B500F875F008EF2FFFEE33FEEC33FCEE9DEC03
:1005C500984005FCEE9DFE0FD5F0E9E4CEFD22ED49
:1005D500F8F5F0EE8420D21CFEADF075F008EF2F93
:1005E500FFED33FD4007985006D5F0F222C398FD84
:0505F5000FD5F0EA2221
:1003FE0002019BE493A3F8E493A34003F68001F279
:10040E0008DFF48029E493A3F85407240CC8C333FF
:10041E00C4540F4420C8834004F456800146F6DFCE
:10042E00E4800B01020408102040809005FAE47E5F
:10043E00019360BCA3FF543F30E509541FFEE493C3
:10044E00A360010ECF54C025E060A840B8E493A38A
:10045E00FAE493A3F8E493A3C8C582C8CAC583CAB5
:10046E00F0A3C8C582C8CAC583CADFE9DEE780BE6D
:01065F00009A
:00000001FF
