:020000040800F2
:10000000F808002045010008A3230008D71F0008B6
:10001000A123000829030008613200080000000045
:10002000000000000000000000000000752A000829
:1000300043030008000000005D280008952C00081C
:100040005F0100085F0100085F0100085F01000810
:100050005F0100085F0100085F0100085F01000800
:100060005F0100085F0100085F0100085F010008F0
:100070005F0100085F0100085F0100085F010008E0
:100080005F0100085F0100085F0100085F010008D0
:100090005F0100085F0100085F0100085F010008C0
:1000A0005F0100085F0100085F010008F92C0008EB
:1000B0005F0100085F0100085F0100085F010008A0
:1000C0005F0100085F0100085F0100085F01000890
:1000D0005F0100085F0100085F0100082532000889
:1000E0005F0100085F0100085F0100085F01000870
:1000F0005F0100085F0100085F0100085F01000860
:100100005F0100085F0100085F0100085F0100084F
:100110005F0100085F0100085F0100085F0100083F
:100120005F0100085F0100085F0100085F0100082F
:10013000DFF80CD000F08AF800480047D5360008F8
:10014000F80800200648804706480047FEE7FEE71B
:10015000FEE7FEE7FEE7FEE7FEE7FEE7FEE7FEE777
:10016000F72C000831010008202A04DB203A21FA8C
:1001700002F00021704721FA02F3D040C2F12002C0
:100180009140084319467047D2B201E000F8012BB4
:10019000491EFBD270470022F6E710B513460A4607
:1001A00004461946FFF7F0FF204610BD30B505465E
:1001B0002A460B4612F8010B13F8014B08B1A04276
:1001C000F8D01CB1002802D06D1CF1E7284630BDE4
:1001D00030B504460020034600E05B1C934203D286
:1001E000E05CCD5C401BF8D030BD2DE9F05F0546EA
:1001F000002092469B4688460646814640241BE0E6
:100200002846414647462246FFF7AEFF53465A4628
:10021000C01A914110D311461846224600F028F822
:100220002D1A67EB01084F4622460120002100F0FD
:100230001FF817EB00094E41201EA4F10104DFDC7A
:10024000484631462A464346BDE8F09F064C074DD6
:1002500006E0E06840F0010394E807009847103496
:10026000AC42F6D3FFF768FFBC370008DC37000864
:10027000202A04DB203A00FA02F100207047914066
:10028000C2F1200320FA03F319439040704770B580
:1002900000254FF4C876052D33D2DFE805F0030FB3
:1002A000212E3800641CE4B202F09AF8A8B90120AB
:1002B00002F078F888B9002401250AE0641CE4B251
:1002C00002F08EF848B9022002F06CF828B9002438
:1002D0000225304603F0A4F9DDE702F0CDFC10E082
:1002E00002F0DAF838B102F0C7FC002425463046A7
:1002F00003F096F9D6E7032503E002F0E7F878B9B2
:100300000425304603F08CF90A2CC4D170BD0020BE
:1003100002F020F9401CC1B2022002F0F1F808B14D
:100320000025DAE7012070BDFEE770B50C460546F2
:1003300002F0E2FA20EA04012846BDE8704002F02B
:1003400091BF704770B54FF0E02300215C6900EB6E
:10035000C0009A69C50098699042FCD002D2A2EB15
:10036000000202E0A4EB0006324411440246A94216
:10037000F1D370BD10B5B42002F046FC4FF41674F2
:10038000204600F08FFA002002F03EFC204600F0EC
:1003900089FABDE8104003F079B9000021283CD269
:1003A000DFE800F011131517191B1D1F2123252746
:1003B0003B3B3B3B27293B3B3B2B3B3B2D2F3133EF
:1003C000353B3B37390016A070471AA070471EA076
:1003D000704722A0704726A070472AA070472EA021
:1003E000704732A0704736A070473AA070473EA0D1
:1003F000704742A0704746A070474AA070474EA081
:10040000704752A0704756A070475AA070475EA030
:10041000704762A0704766A070476AA070470000EE
:10042000202020202020204F4B2020202020202072
:100430000000000020CAFDBEDDB0FCBDD3CAD5B4AB
:10044000EDCEF32000000000B4ABB8D0C6F7C9CFA2
:10045000C3BBD3D0CAD6D6B800000000C2BCC8EB1C
:10046000D6B8CEC6CDBCCFF1CAA7B0DC0000000024
:1004700020D6B8CEC6CCABB8C9BBF2CCABB5AD209C
:100480000000000020D6B8CEC6CCABCAAABBF2CCC6
:10049000ABBAFD20000000002020D6B8CEC6CDBCEF
:1004A000CFF1CCABC2D220200000000020D6B8CEC5
:1004B000C6CCD8D5F7B5E3CCABC9D9200000000035
:1004C0002020D6B8CEC6B2BBC6A5C5E420202020C9
:1004D0000000000020C3BBD3D0CBD1CBF7B5BDD635
:1004E000B8CEC62000000000202020CCD8D5F7BA16
:1004F000CFB2A2CAA7B0DC20000000002020C9BEF5
:10050000B3FDC4A3B0E5CAA7B0DC20200000000002
:1005100020C7E5BFD5D6B8CEC6BFE2CAA7B0DC209B
:1005200000000000BBBAB3E5C7F8C4DACEDED3D012
:10053000D0A7CDBC0000000020B6C1D0B4464C41CD
:100540005348B3F6B4ED202000000000202020CE58
:10055000B4B6A8D2E5B4EDCEF32020200000000010
:100560002020CEDED0A7BCC4B4E6C6F7BAC5202092
:100570000000000020BCC4B4E6C6F7C4DAC8DDB48D
:10058000EDCEF3200000000020BCC7CAC2B1BED22D
:10059000B3C2EBB4EDCEF3200000000020202020F9
:1005A000D6B8CEC6BFE2C2FA20202020000000004C
:1005B00020202020B5D8D6B7B4EDCEF320202020BF
:1005C0000000000020B7B5BBD8C8B7C8CFC2EBD376
:1005D000D0CEF3200000000072B6FEE7224810B52E
:1005E0000068406840F2DC5000F05CF964211F486C
:1005F000FFF7D1FDC82309221D491B4801F09DFCCE
:100600004FF4FA6423460A221849174801F030FCD7
:1006100064211648FFF7BFFD0A2000F043F9124895
:1006200001F0B9F912496423082210390E4801F08B
:1006300084FC0A2000F036F923460A220B490A48B6
:1006400001F016FC0A220BA10848FFF7C1FD40B1DA
:100650000A220BA10548FFF7BBFD002800D00220AD
:1006600010BD012010BD0000C8010020A002002024
:1006700024000020EFAA0000000004130000000086
:10068000EFAA00000000021301160000204810B578
:100690000068406840F2DC5000F004F964211D4815
:1006A000FFF779FDC82309221B49194801F045FCD1
:1006B0004FF4FA6423460A221649154801F0D8FB84
:1006C00064211448FFF767FD0A2000F0EBF810489A
:1006D00001F061F91049C823082208390C4801F0DB
:1006E0002CFC0A2000F0DEF82346092209490848BC
:1006F00001F0BEFB092209A10648FFF769FD08B118
:10070000002010BD64210348FFF745FD012010BD06
:10071000C8010020A002002024000020EFAA000051
:10072000000004120000000010B590F82110002213
:10073000022905D00421816380F82020012010BD0A
:1007400001680B6823F00E030B6001680B6823F04F
:1007500001030B6090F84030C46B012101FA03F3F0
:10076000636080F8211080F82020104610BD000042
:100770002DE9F05F90F821100024022903D0042114
:100780008163012485E001680A6822F00E020A6094
:1007900001680A6822F001020A603F4E3E4FB2151E
:1007A000DFF8F4C0DFF8F090DFF8ECA0DFF8E8B095
:1007B000DFF8E4E00168783F13011502ACF1640C46
:1007C000A9F15009AAF13C0AABF1280BAEF1140EC5
:1007D0004FF48018B14227D9B9420ED0614512D0EA
:1007E00049451DD0514518D0594518D0714501D102
:1007F000424615E0294EB14201D1012210E0274EB8
:100800001436B14201D110220AE0244E2836B142FA
:1008100006D0224A3C32914201D11A4600E02A46D3
:100820001E49091F0A602BE0B94213D0614517D059
:10083000494522D051451DD059451DD0714501D1A2
:1008400042461AE0B14202D14FF0807215E0134ED9
:10085000B14201D1012210E0104E1436B14201D153
:1008600010220AE00D4E2836B14206D00B4A3C3227
:10087000914201D11A4600E02A46074980394A6070
:10088000012180F82110002180F82010416B01B176
:1008900088472046BDE8F09F8000024008040240DF
:1008A000806B704770B5044600F010F90546601C77
:1008B00002D004480078044400F008F9401BA0422C
:1008C000FAD370BD040000202DE9F84FDFF8C8917D
:1008D0000024A9F1040B23460F2709F1040AABF108
:1008E000040ED1E00125A54006EA0502AA4276D110
:1008F000DFF8A8C14E68A6EB0C0866452BD00DDCCE
:10090000032E34D005DC36B3012E19D0022E2FD1A0
:100910001BE0112E16D0122E2AD119E0B8F5881F2F
:1009200019D006DCB8F5803F15D0B8F5801F1FD16F
:1009300011E0B8F5001F0ED0B8F5041F18D10AE079
:10094000CB6815E0CB681B1D12E0CB6808330FE0C5
:10095000CB680C330CE08B682BB1012B4FF00803F4
:1009600003D0456104E0042302E0056100E00023B8
:10097000FF2A01D8064601E000F104064FEA84058B
:1009800001D9A5F12005D6F8008007FA05FC28EA70
:100990000C0803FA05F548EA0508C6F800804D681A
:1009A000ED0070D53E4DAE6946F00106AE61AD6911
:1009B00024F0030605F0010500953A4D06EB050C01
:1009C000DCF80850A607360F07FA06F825EA0805EE
:1009D000DFF8D480404503D14FF0000825E052E015
:1009E000DFF8C880404502D14FF001081DE0DFF874
:1009F000C080404502D14FF0020816E0DFF8B48015
:100A0000404502D14FF003080FE0DFF8AC804045CD
:100A100002D14FF0040808E0DFF8A080404502D181
:100A20004FF0050801E04FF0060808FA06F848EA1A
:100A30000508CCF808804D68D9F80060ED024D46F5
:100A400001D5164300E096432E604D68DAF8006049
:100A5000AD02554601D5164300E096432E604D6821
:100A6000DBF80060AD035D4601D5164300E0964318
:100A70002E604D68DEF80060ED03754601D5164323
:100A800000E096432E60641C0A681646E2407FF43C
:100A900029AFBDE8F88F00000804014000001110E4
:100AA000001002400000014000080140000C01401D
:100AB000001001400014014000180140001C0140DA
:100AC0000AB1016170470904FBE700000148806832
:100AD0007047000004000020024881680278114439
:100AE0008160704704000020074810B5016841F09C
:100AF00010010160032000F075F80F2000F006F8E7
:100B000000F024F8002010BD0020024070B50D4D0B
:100B100004464FF47A712878B1FBF0F00A4909686D
:100B2000B1FBF0F000F025FC48B9102C07D20022F0
:100B30002146501E00F036F800206C6070BD012088
:100B400070BD000004000020100000200C4808B513
:100B5000816941F001018161816901F00101009128
:100B6000C16941F08051C161C06900F080500090BE
:100B70000448416821F0E06141F00071416008BD26
:100B80000010024000000140002809DB00F01F02B5
:100B9000012191404009800000F1E020C0F80011DF
:100BA00070470000F0B40E4B1B680C46C3F30223E1
:100BB000C3F10705042D00D90425191D072901D209
:100BC000002300E0DB1E012606FA05F1491E214044
:100BD00099409E40761E16403143F0BC02F076BB31
:100BE0000CED00E0064900F0070208684FF6FF032D
:100BF000184040EA0220034A104308607047000092
:100C00000CED00E00000FA052DE9F0470F46050065
:100C100061D0434E306800F00700B84209D2306816
:100C200020F0070038433060306800F00700B84219
:100C300051D128683B4C810712D5400703D5606825
:100C400040F4E06060602878000703D5606840F4F5
:100C5000605060606068A96820F0F0000843606040
:100C60002878C00728D06868012810D02168022899
:100C700010D0890700292EDA616821F003010143B1
:100C80006160FFF723FF804641F288390DE021685B
:100C90008903EFE78901EDE7FFF718FFA0EB0801F3
:100CA000494502D90320BDE8F0876068696800F013
:100CB0000C00B0EB810FEFD1306800F00700B842B4
:100CC0000BD9306820F0070038433060306800F0FE
:100CD0000700B84201D00120E5E72878400705D594
:100CE0006068E96820F4E0600843606028780007E5
:100CF00006D56068296920F4605040EAC100606050
:100D000000F038F86168084AC1F30311515CC8402B
:100D10000649086006480068FFF7F8FE0020C2E7B1
:100D20000020024000100240A237000810000020FE
:100D3000080000200448054900684968044AC1F3D6
:100D40000221515CC8407047100000200010024092
:100D5000B23700080448054900684968044AC1F3ED
:100D6000C221515CC84070471000002000100240B2
:100D7000B23700080E4A51680E4801F00C03042BEC
:100D800011D0082B0FD10C48C1F38343C903C05CB9
:100D90000AD55168084AC1F34041921E515C054A88
:100DA0005043B0FBF1F070470449484370470000DE
:100DB0000010024000127A009237000800093D003E
:100DC0002DE9F84F040070D02078C04DC00749D0FD
:100DD0006868C0F38100012807D06868C0F381000B
:100DE000022809D16868C00306D52868800339D570
:100DF00060680028E7D035E06068B0F5803F0BD030
:100E000010B1B0F5A02F11D0286820F480302860F0
:100E1000286820F4802002E0286840F480302860B0
:100E2000606890B1FFF752FE06460AE0286840F479
:100E300080202860F0E700BFFFF748FE801B642891
:100E400073D828688003F7D50CE0FFF73FFE06460D
:100E500005E000BFFFF73AFE801B6428F0D8286841
:100E60008003F7D420789A4E80074FF001094FF0A5
:100E7000000839D5686810F00C0F07D06868C0F317
:100E80008100022809D16868C00306D42868800759
:100E900014D52069012808D110E02069B0B1C6F846
:100EA0000090FFF713FE074605E00AE1FFF70EFE8C
:100EB000C01B0228C4D828688007F7D52868616954
:100EC00020F0F80040EAC10028600DE0C6F800807C
:100ED000FFF7FCFD074604E0FFF7F8FDC01B022802
:100EE00023D828688007F7D4207800072CD57948C4
:100EF000A169D9B1C0F80090FFF7E8FD074604E00A
:100F0000FFF7E4FDC01B02280FD8686A8007F7D5F9
:100F100071484FF4FA510068B0FBF1F0009000BF47
:100F20000098411E0091FAD20EE080E0C0F80080E7
:100F3000FFF7CCFD074604E0FFF7C8FDC01B022801
:100F400075D8686A8007F7D42078400760D5E869CB
:100F50000027C00008D4E86940F08050E861E869E3
:100F6000012700F0805000905C480168C90513D447
:100F70000168834641F480710160FFF7A7FD824656
:100F800006E000BFFFF7A2FDA0EB0A0064284ED8E0
:100F9000DBF80000C005F5D5E06801280AD008B1EB
:100FA000052813D0286A20F001002862286A20F062
:100FB000040002E0286A40F001002862E06841F283
:100FC000883B98B1FFF782FD82460BE0286A40F02B
:100FD00004002862EEE700BFFFF778FDA0EB0A01EE
:100FE00059455AD8286A8007F6D50CE0FFF76EFD00
:100FF000824605E0FFF76AFDA0EB0A0159454CD88F
:10100000286A8007F6D41FB1E86920F08050E861B3
:10101000E06988B36968C1F38101022944D00228DC
:10102000C6F8608004D0FFF751FD044638E034E094
:10103000FFF74CFD074604E0FFF748FDC01B022800
:101040002BD828688001F7D4206AB0F5803F05D1FD
:101050006868A16820F4003008436860D4E908019A
:101060000843696821F4741108436860C6F8609009
:10107000FFF72CFD044606E025E000BFFFF726FD44
:10108000001B022809D828688001F7D51BE000BFA3
:10109000FFF71CFD001B022802D90320BDE8F88FD2
:1010A00028688001F4D40EE00128F7D06868226A2D
:1010B00000F48031914204D1616A00F470108842DA
:1010C00001D00120EAE70020E8E70000001002401C
:1010D00000004242800442421000002000700040A4
:1010E00070B5040009D0606A002540B125616561D2
:1010F000A56294F8510040B10CE0012070BD606819
:10110000B0F5827FF4D0E561F2E784F850502046D4
:1011100000F040F8022084F851002068016821F0B6
:1011200040010160A088218900F4827001F404412B
:101130000843A18901F400610843217C01F0020108
:101140000843217D01F001010843218B01F4007166
:101150000843217F01F03801084394F8201001F082
:1011600080010843218D01F4005108432168086083
:10117000A069042101EA1040216848602068C16923
:1011800021F40061C1616565012084F851000020EF
:1011900070BD000030B585B0002400940194029425
:1011A000039400681449884223D11448C16941F46A
:1011B0000041C161C16901F400410491816941F0BC
:1011C0000801816180690E4D00F00800049028201C
:1011D0000090022001900320039069462846FFF703
:1011E00073FB1020CDE90004694628460294FFF7FE
:1011F0006BFB05B030BD0000003C00400010024019
:10120000000C01402DE9F84F044690F850000026EC
:10121000984615468A4601280CD0012784F850705C
:10122000FFF754FC814694F85100B346012804D0DE
:1012300002269AE00220BDE8F88FBAF1000F6FD0C5
:10124000002D6DD0032084F85100C4F854B0C4F8C8
:1012500030A0A586E586C4F838B0A4F83CB0A4F860
:101260003EB0C4F844B0C4F840B0A068B0F5004F38
:1012700009D12068016821F04001016020680168FF
:1012800041F48041016020680168490603D4016887
:1012900041F040010160E068B0F5006F606803D084
:1012A00058B3012D29D049E008B1012D1FD1206B81
:1012B00021680088C86006E020688168890709D530
:1012C000216B0988C160206B801C2063E08E401E6A
:1012D000E0860CE0FFF7FAFBA0EB0901414503D3E0
:1012E000B8F1FF3F03D006E0B8F1000F03D0E08E65
:1012F0000028E1D125E0032635E0206B2168007845
:10130000087306E02068816889070AD5216B09788F
:101310000173206B401C2063E08E401EE0860DE0D0
:101320001FE0FFF7D3FBA0EB0901414503D3B8F160
:10133000FF3F03D0DFE7B8F1000FDCD0E08E0028DC
:10134000E0D14A464146204601F004FB08B1202086
:101350006065A06818B92068C16880680090606DF9
:1013600008B1012601E084F8517084F850B030468D
:1013700061E710B5401EB0F1807F01D3012010BDA0
:101380004FF0E02460610F21601701F09FFF002003
:10139000A06107202061002010BD7047704710B584
:1013A00090F83C20012A22D0012280F83C20CA6813
:1013B0008C6822F4407222434C6822F480622243FB
:1013C0000C6822F4006222430C6922F4805222430A
:1013D0004C6922F400522243C969002322F480425E
:1013E0000A4301684A6480F83C30002010BD0220A6
:1013F00010BD000070B590F83C20012A2CD00124CB
:1014000080F83C40022280F83D2003685A689D68BD
:1014100022F070060A6832435A60104B02689A4202
:101420000ED00F4B9A420BD0B2F1804F08D00D4B2B
:101430009A4205D00C4B9A4202D00C4B9A4204D1EE
:10144000496825F080031943916080F83D400021F0
:1014500080F83C10084670BD022070BD002C014091
:10146000003401400004004000080040000C00402F
:1014700010B5040003D094F83D0010B107E001203E
:1014800010BD002084F83C00204600F01FF8022028
:1014900084F83D00211D206801F034FC012084F80F
:1014A000460084F83E0084F83F0084F8400084F849
:1014B000410084F8420084F8430084F8440084F832
:1014C000450084F83D00002010BD000008B500680C
:1014D0000B49884212D10B48816941F40061816156
:1014E0008069002200F40060009011461B20FFF785
:1014F00059FBBDE808401B20FFF746BB08BD0000B4
:10150000002C01400010024070B5044690F83C00E9
:101510000025012817D0012684F83C60022084F8B9
:101520003D002068826822F0770222F47F428260C8
:101530000868502838D00DDC20284FD005DC90B347
:10154000102811D14AE0022070BD302846D0402832
:101550000AD13BE060282FD070280DD0B0F5805F15
:1015600003D0B0F5005F12D0012584F83D60002063
:1015700084F83C00284670BDCB68D1E90121206881
:1015800001F013FC2068816841F0770109E0CB6825
:10159000D1E90121206801F008FC2068816841F44C
:1015A00080418160E1E719E0CA684968206801F07C
:1015B000D1FC5021206806E0CA684968206801F023
:1015C000DAFC6021206801F0FAFBCEE7CA684968BE
:1015D000206801F0BFFC40212068F4E72268014642
:1015E0001046F0E7704770B50446006801694FF097
:1015F0000005C943890715D4C168C943890711D4B7
:10160000E91E01610120207720688069800720465B
:1016100002D0FFF7E7FF04E000F0CAF8204600F030
:101620005CF9257720680169C943490717D4C16867
:10163000C943490713D46FF00401016102202077E8
:101640002068806910F4407F204602D0FFF7CAFF6F
:1016500004E000F0ADF8204600F03FF9257720685F
:101660000169C943090716D4C168C943090712D4DF
:101670006FF008010161042020772068C0698007AD
:10168000204602D0FFF7AEFF04E000F091F82046BC
:1016900000F023F9257720680169C943C90617D4EA
:1016A000C168C943C90613D46FF010010161082055
:1016B00020772068C06910F4407F204602D0FFF7F1
:1016C00091FF04E000F074F8204600F006F9257759
:1016D00020680169C943C90708D1C168C943C9075E
:1016E00004D1891E0161204600F052F92068016989
:1016F000C943090609D4C168C943090605D46FF076
:10170000800101612046FFF748FE20680169C94356
:10171000490609D4C168C943490605D46FF04001A0
:101720000161204600F035F920680169C943890646
:101730000BD4C168C943890607D46FF02001016149
:101740002046BDE87040FFF729BE70BD00B585B0EA
:101750000021009101910291039100681049884293
:101760001BD11048816941F040018161806969465F
:1017700000F0400004904FF40070009002200190AF
:1017800003900948FFF7A0F80848416821F0C0011C
:1017900041F0E06141F0C001416005B000BD0000D2
:1017A000002C0140001002400018014000000140E0
:1017B000704770B5044690F83C0000260D4601289D
:1017C0000FD0012084F83C006AB1042A1DD0082AF9
:1017D0002FD00C2A3FD00126002084F83C00304650
:1017E00070BD022070BD206801F0F2FA20688169A6
:1017F00041F0080181612068816921F00401816163
:10180000206881692A69114311E0206801F010FB0A
:101810002068816941F4006181612068816921F457
:1018200080618161206881692A6941EA02218161C0
:10183000D2E7206801F032FB2068C16941F008015D
:10184000C1612068C16921F00401C1612068C169DA
:101850002A69114311E0206801F054FB2068C16936
:1018600041F40061C1612068C16921F48061C161F6
:101870002068C1692A6941EA0221C161ACE710B55B
:10188000040003D094F83D0010B107E0012010BD22
:10189000002084F83C00204600F01EF8022084F866
:1018A0003D00211D206801F02DFA012084F846003A
:1018B00084F83E0084F83F0084F8400084F841003A
:1018C00084F8420084F8430084F8440084F845001A
:1018D00084F83D00002010BD7047704710B50446E5
:1018E000022249B104290ED0082913D094F84100EE
:1018F000012816D0012010BD94F83E000128F9D12E
:1019000084F83E200FE094F83F000128F2D184F8DB
:101910003F2008E094F840000128EBD184F84020F3
:1019200001E084F841200122206801F031FA1349D6
:101930002068134A884201D0904203D1436C43F49B
:1019400000434364206888420DD090420BD0B0F130
:10195000804F08D00B49884205D00B49884202D0FD
:101960000A49884204D1816801F00701062903D0A1
:10197000016841F001010160002010BD002C014010
:10198000003401400004004000080040000C00400A
:1019900070477047704770B5044620680C3050E8B7
:1019A000001F21F4907140E80012002AF5D1206850
:1019B000143050E8001F21F0010140E80012002A15
:1019C000F5D1206B012809D120680C3050E8001FA8
:1019D00021F0100140E80012002AF5D1206840698A
:1019E0004FF00005400615D52068143050E8001F60
:1019F00021F0400140E80012002AF5D1E06B48B127
:101A00004563E06BFEF790FE20B1E06BFEF748FF08
:101A1000202806D0E585202084F842002563002098
:101A200070BD10206064032070BD7047F8B5016878
:101A300004460868CA684B6910F00F0F4FF00005A4
:101A400059D003F0010602F49077374365D0C107FF
:101A500005D0D10503D5616C41F0010161644107F6
:101A600005D5D90703D0616C41F00201616481079B
:101A700005D5D90703D0616C41F004016164010709
:101A800007D502F02001314303D0616C41F0080119
:101A90006164616C00293AD0800604D5900602D5B5
:101AA000204601F0A9FA20684069616CC0F38010FB
:101AB000090700D460B3204601F077FA2068406936
:101AC000400621D52068143050E8001F21F0400165
:101AD00040E80012002AF5D1E06BA8B16D494163DE
:101AE000E06BFEF745FE002811D0E06B416B01B0C2
:101AF000BDE8F040084783060FD593060DD5204674
:101B0000BDE8F84001F078BA2046FFF78EFFF8BD37
:101B10002046FFF78AFF6564F8BD266B2023012E5F
:101B20007CD1C6067AD5D60678D508684868009074
:101B300048694FF00206400640D5E16B08684068EE
:101B40000004000CE8D0A28D8242E5D9E0858869C6
:101B500020282DD020680C3050E8001F21F480711F
:101B600040E80012002AF5D12068143050E8001F28
:101B700021F0010140E80012002AF5D1206814305C
:101B800050E8001F21F0400140E80012002AF5D182
:101B900084F84230256320680C3050E8001F21F0A3
:101BA000100140E80012002AF5D1E06BFEF7BCFD01
:101BB0006663A08DE18D401A81B22AE0A08DE18D8F
:101BC000401A81B2E08D0028A6D00029A4D0226856
:101BD0000C3252E8000F20F4907042E80007002F0A
:101BE000F5D12068143050E8002F22F0010240E8BF
:101BF0000027002FF5D184F84230256320680C308F
:101C000050E8002F22F0100240E80023002BF5D10D
:101C100066632046FFF7BEFEF8BDFFE705062BD53D
:101C2000150629D594F841002128F5D1A068B0F512
:101C3000805F01D12069B0B1206A411C2162216816
:101C400000784860E08C401E0004000CE084E3D182
:101C50002068C16821F08001C1602068C16841F03E
:101C60004001C160D8E7206A0088C0F308004860DE
:101C7000206A801C2062E5E74006CDD55006CBD512
:101C8000CA68204622F04002CA6084F8413000F061
:101C9000A1F9C1E79B2F000870B5040004D094F8A7
:101CA0004100002510B106E0012070BD84F84050CD
:101CB000204600F023F8242084F841002068C16801
:101CC00021F40051C160204601F0F8F92068016953
:101CD00021F4904101612068416921F02A014161AC
:101CE0002068C16841F40051C1606564202084F817
:101CF000410084F842006563002070BDF0B585B0F6
:101D000000240094019402940394504D03685048B9
:101D1000022103220426AB4225D1C36943F4801378
:101D2000C361C36903F480130493836943F0100310
:101D30008361836903F010030493836943F02003F4
:101D400083618069039200F020000490C802CDE90D
:101D5000000169463F48FEF7B7FDCDE900646946DA
:101D60003D48029420E03E4DDFF8F0C02F1563455A
:101D70001ED1836943F480438361836903F4804304
:101D80000493836943F0040383618069039200F044
:101D9000040004906815CDE9000169462846FEF765
:101DA00093FDCDE9007421E0FEF78EFD05B0F0BD96
:101DB000DFF8B0C063451DD1C36943F40033C3618C
:101DC000C36903F400330493836943F0040383611C
:101DD0008069CDE9006100F00400CDE90320694687
:101DE0002846FEF771FD0820CDE900046946284623
:101DF0000294D9E71C4DAB42D8D1C36943F4802388
:101E0000C361C36903F480230493836943F0080327
:101E100083618069CDE9007100F00800CDE90320FD
:101E2000124D69462846FEF74FFDE814CDE900043F
:101E3000694628460294FEF747FD002211462720F6
:101E4000FEF7B0FE2720FEF79FFEAFE700500040F0
:101E50000010024000100140001401400038014011
:101E6000000801400044004000480040000C0140D0
:101E70002DE9F843044690F84200994616460D466F
:101E8000202802D00220BDE8F883ADB1A6B1002021
:101E90006064222184F842102063FEF717FEA685B5
:101EA0008046E685A0684FF48057B84201D120698A
:101EB00020B12E46002526E00120E4E7002622E09E
:101EC0004346002220212046CDF8009001F06DF914
:101ED00008B10320D7E726B1A068B8421BD038B1BB
:101EE00008E020684068C0F3080025F8020B07E00E
:101EF000206980B12068406800F07F0006F8010B7F
:101F0000E08D401EE085E08D0028D9D1202084F8A6
:101F100042000020B7E720684068EFE790F84230C1
:101F2000202B01D00220704721B11AB10023036396
:101F300001F020B90120704770472DE9F8430446AD
:101F400090F841001F4616460D46202802D0022078
:101F5000BDE8F8837DB176B100206064212084F86B
:101F60004100FEF7B3FDA6848046E684A068B0F584
:101F7000805F02D003E00120EAE7206910B12E461D
:101F800000250EE000260CE08021204601F00DF92E
:101F9000A0B9AEB116F8010B21684860E08C401E74
:101FA000E084E08C43464FF0000200970028EBD11C
:101FB0004FF04001204601F0F8F830B10320C7E7A8
:101FC00035F8020BC0F30800E6E7202084F8410052
:101FD0000020BDE77047FEE770B51248042101708C
:101FE000002141700C460146262000F0C6FB90B946
:101FF0000C48083000F001FB0A49486058B9083124
:102000000B1D002003EB84020E5C155CB54204D06E
:10201000641C202CF5DB002070BD401C0428F3DB81
:10202000012070BD3C0000207CB50546EF208DF8F6
:102030000000154C01208DF801006168080E8DF834
:102040000200080C8DF80300080A8DF80400072030
:102050008DF805108DF8060000268DF807602670B3
:102060000BE0012001F0DCFA207830B126706946DF
:102070000648FEF79BF8002804D16D1E2D042D0C98
:10208000EFD100207CBD0000C800002068030020C4
:102090002DE9F04F85B000243A4800940194029451
:1020A0000394816941F004018161816901F00401B7
:1020B0000491816941F040018161816901F0400131
:1020C0000491816941F008018161816901F0080191
:1020D0000491816941F020018161816901F0200151
:1020E0000491816941F0100181618069DFF8989065
:1020F00000F010004FF47065049000222946484615
:10210000FEF7DEFCDFF884A04FF4004700223946DA
:102110005046FEF7D5FCDFF878B04FF48078002207
:1021200041465846FEF7CCFCF81002268DE85100D7
:1021300069465846FEF7C8FB00950125CDE90154D4
:10214000694648460395FEF7BFFB4FF47040CDE962
:102150000004694648460294FEF7B6FB00970396D2
:10216000CDE9015469465046FEF7AEFBCDF800803C
:102170000396CDE9015469465846FEF7A5FB05B024
:10218000BDE8F08F0010024000140140000801403B
:10219000000C0140104810B50E4901604FF48271E7
:1021A000416000218160C1604FF400720161C0E9AB
:1021B00005120822C0E90721416281620A21C16239
:1021C000FEF78EFF002803D0BDE81040FEF704BAEA
:1021D00010BD0000003C0040E000002010B596B0AB
:1021E00000240F9410941194129413941C2108A8A5
:1021F0001494FDF7D0FF20216846FDF7CCFF284856
:10220000264901604721C0E9011444F61F61C0E975
:10221000031444618461FFF72BF908B1FEF7DCF980
:102220004FF480500F900FA91D48FFF76DF908B1CA
:10223000FEF7D2F91A48FFF722FB08B1FEF7CCF9F6
:10224000139413A916481494FFF7D4F808B1FEF7B5
:10225000C3F96020CDE908040A940B940C940D9402
:10226000002208A90E480E94FFF7A3FA08B1FEF762
:10227000B3F900944FF40050CDE904400294019466
:102280000394694606480794FFF789F808B1FEF7FA
:10229000A3F90348FFF75AFA16B010BD002C01400D
:1022A000380100200C4810B50A4901604FF4E131B3
:1022B0004160002181600C22C160C0E9041281618B
:1022C000C161FFF7E9FC002803D0BDE81040FEF72C
:1022D00083B910BD00500040800100200C4810B5AB
:1022E0000A4901604FF4E1314160002181600C2214
:1022F000C160C0E904128161C161FFF7CDFC002813
:1023000003D0BDE81040FEF767B910BD00380140AA
:10231000C80100200C4810B50A4901604FF4E131B2
:102320004160002181600C22C160C0E9041281611A
:10233000C161FFF7B1FC002803D0BDE81040FEF7F3
:102340004BB910BD00440040100200200C4810B5ED
:102350000A4901604FF4E1314160002181600C22A3
:10236000C160C0E904128161C161FFF795FC0028DA
:1023700003D0BDE81040FEF72FB910BD0048004063
:102380005802002001B5FF23012269460348FFF7E8
:10239000D4FD002800D0012008BD00005802002014
:1023A000FEE7FEE710B5044600F088FB00F064FB92
:1023B0000120FFF7E7FF042000F090FB0220FFF769
:1023C000E1FF2046FFF7DEFFE01D00F06DFB4FF45C
:1023D000FA60FFF729FE08B1407A10BDFF2010BD5A
:1023E00010B500F06BFB00F047FB0120FFF7CAFFC0
:1023F000032000F073FB0120FFF7C4FF052000F06D
:1024000053FB4FF4FA60FFF70FFE08B1407A10BD9E
:10241000FF2010BD2DE9F0411E4614460D4607462B
:1024200000F04CFB00F028FB0120FFF7ABFF082079
:1024300000F054FB1B20FFF7A5FF3846FFF7A2FF73
:10244000280AFFF79FFFE8B2FFF79CFF200AFFF77B
:1024500099FFE0B2FFF796FF07EB1520E9B20844B9
:1024600000EB1420E1B20844243000F01DFB4FF4CF
:10247000FA60FFF7D9FD58B1C27A837A417A02EB4C
:1024800003223280427B007B02EB0020708000E060
:10249000FF210846BDE8F08110B500F00FFB00F009
:1024A000EBFA0120FFF76EFF032000F017FB03207B
:1024B000FFF768FF072000F0F7FA4FF4FA60FFF724
:1024C000B3FD08B1407A10BDFF2010BD10B500F07B
:1024D000F5FA00F0D1FA0120FFF754FF032000F0D5
:1024E000FDFA0520FFF74EFF092000F0DDFA4FF45A
:1024F000FA60FFF799FD08B1407A10BDFF2010BDCA
:1025000070B50C46054600F0D9FA00F0B5FA012086
:10251000FFF738FF062000F0E1FA0620FFF732FF50
:102520002846FFF72FFF200AFFF72CFFE0B2FFF746
:1025300029FF05EB1420E1B208440D3000F0B4FA95
:102540004FF4FA60FFF770FD08B1407A70BDFF20CC
:1025500070BD000070B5054600F0B0FA00F08CFACE
:102560000120FFF70FFF032000F0B8FA1D20FFF74E
:1025700009FF212000F098FA4FF4FA60FFF754FDAC
:10258000040007D0E17AA27A607A01EB0221298067
:1025900070B100E0FF20FDF701FF014607A000BF7A
:1025A00000F084FEE07AA17A00EB0120C0B270BD99
:1025B000E07AA17A00EB012102A0F1E70D0A257370
:1025C000000000000D0AD3D0D0A7D6B8CEC6B8F60A
:1025D000CAFD3D256400000003211420FDF7A5BEBF
:1025E00010B5142000F088F9800705D10321BDE85B
:1025F0001040142000F034BB10BD70B50646082111
:1026000088B000240846FDF790FE00210D2000F060
:1026100029FE80210E20FDF788FE93208DF804000E
:1026200020208DF8050006A801AB00900222194673
:102630000C2000F017F805000DD1002101A8425C24
:102640007254425C491C5440C9B20429F7D3405C1F
:10265000A04200D0022580210E2000F001FB08B02E
:10266000284670BD2DE9FF5F00270225DDF838A060
:1026700016468B468146B8460C2805D0B9F10E0F98
:1026800005D11227102001E077273020804647F03F
:102690008001022000F0E6FD80210420FDF745FEC8
:1026A0000021012000F0DEFD80210A2000F0D8FA90
:1026B000002405E01BF80410092000F0D3FD641C81
:1026C000B442F7D34946012000F0CCFDB9F10C0F1C
:1026D00003D180210D2000F0C3FA4FF44876042086
:1026E00000F00AF90446761E04D0E00702D114EA8D
:1026F000080FF4D080210D20FDF717FE36B106201B
:1027000000F0FAF810F01B0F0CD0022580210C20ED
:1027100000F0A6FA0021012000F0A4FD04B0284634
:10272000BDE8F09F00253C40E00700D00125B9F14D
:102730000C0FEBD10A2000F0DFF804460C2000F06B
:10274000DBF810F007004FEAC40101D0083901445A
:10275000CAF8001024B1122C04D91224002603E078
:102760000124FBE7002605E0092000F0C5F80399E5
:102770008855761CA642F7D3C8E730B50C46054607
:10278000082187B00846FDF7D0FD07210D2000F095
:1027900069FD0321142000F063FA06A801AB009044
:1027A0008DF80450012219460C20FFF75BFF10B989
:1027B0000699102902D0022007B030BD9DF8041000
:1027C00021709DF805106170F6E7000070B50122D8
:1027D000214DD40321462846FEF772F90A20FDF761
:1027E000B1FD002221462846FEF76AF93C20FEF79B
:1027F00059F8012221462846FEF762F94FF4FA7093
:10280000FDF7A0FD0F21012000F02CFD0220FEF7B6
:1028100049F83D21112000F025FD1E212D2000F05A
:1028200021FD00212C2000F01DFD8D212A2000F02B
:1028300019FD3E212B2000F015FD4021152000F050
:1028400011FD80213320FDF770FD4021152000F09F
:1028500009FD002070BD0000000801407047000025
:1028600070B5164D4FF48074002221462846FEF7BD
:1028700027F9FF230422AA211148FEF7C3FC0122F5
:1028800021462846FEF71CF93220FEF70BF8FFF729
:102890009DFF0A20FEF706F8FFF798FF0A20FEF7D3
:1028A00001F8FFF799FE0A20FDF7FCFFFFF798FEFD
:1028B000BDE8704003A000F0F9BC0000000C01402E
:1028C000E0000020524649442D4D465243353232F5
:1028D00020B3F5CABCBBAFCDEAB3C90D0A46696ED9
:1028E0006443617264205374617274696E67202E50
:1028F0002E2E0D0A000000007CB500218DF800107E
:102900007E2101EA400040F080008DF804000120A3
:10291000FDF7C8FF0D4D4FF4807400222146284674
:10292000FEF7CEF80A4E012201A9304600F090F8D9
:1029300001226946304600F01DF801222146284652
:10294000FEF7BEF89DF800007CBD0000000C0140C1
:10295000003C004038B50B4600920446002280211E
:1029600000F01AF8002804D0606D40F02000606587
:10297000032038BD10B5FF2309E0C3608468A407B5
:10298000FCD58468E407FCD0C46801F8014B521EF2
:10299000F3D2002010BD00002DE9F8431E469146F9
:1029A00088460446089DFEF791F8401B351AFEF74D
:1029B0008DF8074625480068C0F3CB30684338E0FF
:1029C000701C37D0FEF782F8C01BA84203D215B1A5
:1029D000009860B32CE02068416821F0E00141607C
:1029E0006068B0F5827F0BD1A068B0F5004F02D0CF
:1029F000B0F5806F04D12068016821F040010160CA
:102A0000A06AB0F5005F09D12068016821F4005187
:102A100001602068016841F400510160012084F8E0
:102A20005100002084F850000320BDE8F883002501
:102A3000401E00902068816838EA010004D000211F
:102A40004945BDD10020F0E70121F9E71000002041
:102A50000CE083689B07FCD511F8013BC36001E0E3
:102A6000836883608368DB07FAD0C368521EF0D2A4
:102A7000002070477047000010B50A4C6068000ED7
:102A8000FFF780FC6068C0F30740FFF77BFCA0887D
:102A9000C0F30720FFF776FC2079BDE81040FFF770
:102AA00071BC0000C800002010B50446000AFFF702
:102AB00069FCE0B2BDE81040FFF764BC10B54FF40C
:102AC000C8710548FDF767FBEF20FFF75BFCBDE829
:102AD00010400120FFF756BC6803002010B50446E3
:102AE000C0F30720FFF74EFCE0B2BDE81040FFF74F
:102AF00049BC000070B5002464213A48FDF74BFB47
:102B00003948FEF748FFC823012236493648FFF707
:102B1000AFF9012235A13348FDF75AFBC8B10122B4
:102B200033A13048FDF754FB002843D0012231A1E6
:102B30002C48FDF74DFB98B301222FA12948FDF742
:102B400047FB70B301222DA12648FDF741FB48B396
:102B50001DE02B4D0120642128602248FDF71BFB5E
:102B60004FF0FF36C82301221E491F48FFF780F9A6
:102B7000012224A11B48FDF72BFB50B16420641CEB
:102B8000FDF790FE642C0ED028680028EAD10020C2
:102B900070BD64211348FDF7FEFA01202E6070BD60
:102BA0000EE013E018E064210E48FDF7F4FA00246B
:102BB0002E60D7E764210B48FDF7EDFA0220EEE71F
:102BC00064210848FDF7E7FA0420E8E76421054896
:102BD000FDF7E1FA0320E2E764210248FDF7DBFAA2
:102BE0000520DCE704030020100200202200000082
:102BF00011000000440000005500000066000000C5
:102C0000380000203300000014495A2811D003DC9A
:102C100038B12D2819D108E087280ED0B42814D156
:102C20000FE00B684FF4FA725A630B684FF47A7234
:102C30005A630B6840F2DC525A630B684FF4FA6235
:102C40005A630B6840F6C4125A6300EB40020968ED
:102C500002EBC00000F5FA704863704738010020AD
:102C600070B50C460546FFF747FE40EA04012846CA
:102C7000BDE8704000F0F6BA10B5FDF78FFB0146D5
:102C8000BDE8104001A000F011BB000025730D0A43
:102C900000000000FDF720BF30B58FB02821684646
:102CA000FDF779FA14210AA8FDF775FA0121080445
:102CB000CDE900100024029402250491CDE90750CB
:102CC0004FF4E01009906846FEF77AF808B172B642
:102CD000FEE70F20CDE90A054FF48060CDE90C40F6
:102CE00002210AA80E94FDF78FFF002801D072B6CA
:102CF000FEE70FB030BD70470148FEF774BC00001E
:102D000038010020F0B502681C4B1D4D1D4E1E4FB2
:102D10001E4C4FF0804C984209D0A04207D060452D
:102D200005D0A84203D0B04201D0B84204D122F06D
:102D3000700E4A6842EA0E02984209D0A04207D0BB
:102D4000604505D0A84203D0B04201D0B84203D1BB
:102D500022F44075CA682A434D6922F080022A4352
:102D600002608A68C2620A688262984201D0A04208
:102D700001D10969016301214161F0BD002C0140CD
:102D80000004004000080040000C004000340140F6
:102D900010B501F01F030121046A99408C430462BD
:102DA000016A9A401143016210BD10B5846842EA7D
:102DB000032224F47F440A432243826010BD8268C8
:102DC00022F070020A4342F0070181607047000060
:102DD000F0B5036A026A22F0010202624268846965
:102DE000124E24F073050C682C4323F002058B6807
:102DF0002B430D4DA84201D0B04205D123F0080766
:102E0000CB683B4323F00403A84201D0B04205D174
:102E10004D6922F4407215438A692A4342608461F5
:102E2000496841630362F0BD002C01400034014059
:102E3000F0B5026A036A23F01003036243688469F1
:102E40000D6824F4E64444EA05248D6822F020024B
:102E500042EA05120F4D104EA84201D0B04206D1F1
:102E6000CF6822F0800242EA071222F04002A84214
:102E700001D0B04207D14D6923F4406343EA850392
:102E80008D6943EA85034360846149688163026216
:102E9000F0BD0000002C014000340140F0B5026A92
:102EA000036A23F4807303624368C46922F40072E6
:102EB00024F073050C68124E2C438D6842EA0522FB
:102EC0000E4DA84201D0B04206D1CF6822F4006274
:102ED00042EA072222F48062A84201D0B04207D120
:102EE0004D6923F4405343EA05138D6943EA051302
:102EF0004360C4614968C1630262F0BD002C0140B7
:102F00000034014030B5046A026A22F48052026241
:102F10004268C3690D6823F4E64343EA05238D68DC
:102F200024F4005444EA0534084DA84202D0084D68
:102F3000A84204D14D6922F4804242EA85124260DF
:102F4000C36149680164046230BD0000002C014087
:102F50000034014010B5036A046A24F001040462DD
:102F6000846924F0F00444EA021423F00A020A43BC
:102F70008461026210BD10B5036A046A24F0100473
:102F80000462846923F0A00324F4704444EA02320A
:102F900043EA01118261016210BD10B5406A00214F
:102FA000C185C184FEF741FD10BD01680C3151E8B7
:102FB000002F22F4907241E80023002BF5D1016824
:102FC000143151E8002F22F0010241E80023002BC8
:102FD000F5D1016B012909D101680C3151E8002FAD
:102FE00022F0100241E80023002BF5D1202180F8C7
:102FF000421000210163704708B590F84210222961
:1030000001D0022008BD82684FF480539A4201D15A
:10301000016921B1816A9A421BD04AB10AE0026873
:10302000816A5268C2F308020A80816A891C08E03A
:10303000026972B10268526802F07F020A70816A06
:10304000491C8162C18D491E0904090CC18503D048
:103050001BE002685268F1E70168CA6822F02002AA
:10306000CA600168CA6822F48072CA6001684A694D
:1030700022F001024A61202180F8421000214163C0
:10308000026B012A03D0FEF757FF002008BD016341
:1030900001680C3151E8002F22F0100241E80023B2
:1030A000002BF5D101680A68D20602D50A68496882
:1030B0000091818DFEF76EFCE7E7000070B50446D5
:1030C00000680169E26821F44051114301612169FE
:1030D000A0680843616908432168CA6841F20C632B
:1030E0009A430243CA6020684169A26921F4407191
:1030F000114341611E492068884202D1FDF72AFE32
:1031000001E0FDF717FE00EBC00101EB0012606863
:1031100064218000B2FBF0F3B3FBF1F36FF018060B
:103120007343B2FBF0F5B2FBF0F605EB83053223F7
:1031300003EB0515B5FBF1F5B6FBF1F605F0F0056F
:1031400005EB0615B2FBF0F6B2FBF0F0B0FBF1F0C8
:103150006FF01802504306EB800003EB0010B0FB49
:10316000F1F0216800F00F002844886070BD000075
:103170000038014081628285C2850021416422219C
:1031800080F84210016921B10168CA6842F4807276
:10319000CA6001684A6942F001024A610068C16878
:1031A00041F02001C160002070472DE9F0419846B0
:1031B00017460E460446069D27E0681C25D02DB113
:1031C000FDF784FCA0EB0800A8421ED920680C3053
:1031D00050E8001F21F4D07140E80012002AF5D118
:1031E0002068143050E8001F21F0010140E800126F
:1031F000002AF5D1202084F8410084F84200002004
:1032000084F840000320BDE8F0812068006836EAB9
:10321000000004D00020B842CFD00020F3E7012006
:10322000F9E700000B4982B008680268D243D20671
:103230000CD40268406800904FF4C870C8850648F6
:10324000886206490120087002B07047014802B048
:10325000FEF7ECBB5802002068030020C8000020E5
:10326000FEE7000038B5002200927E2202EA40000C
:103270008DF800008DF801100120FDF713FB094DBA
:103280004FF48074002221462846FDF719FC0222E3
:1032900069460548FFF7DCFB012221462846FDF779
:1032A0000FFC38BD000C0140003C00400FB4054B42
:1032B00010B503A9044A029800F028F810BC5DF884
:1032C00014FB0000B9360008DC0000200907090ED5
:1032D000002804DB00F1E02080F80014704700F0C3
:1032E0000F0000F1E02080F8141D704702E008C8CC
:1032F000121F08C1002AFAD170477047002001E070
:1033000001C1121F002AFBD1704700002DE9FF4FB9
:103310008DB09B460F460446002606E025280BD0BC
:103320005A460F999047641C761C20780028F5D1E6
:1033300011B03046BDE8F08F0025A846012298491B
:1033400000E0054314F8013F203B02FA03F0084275
:10335000F7D120782E2817D114F8010F45F0040575
:103360002A280ED06FF02F022078A0F13001092911
:103370000AD808EB880102EB410100EB0108641C4C
:10338000F2E757F8048B641C20786C280DD004DC1D
:103390004C2812D06A2811D104E074280DD07A2864
:1033A0000CD10AE045F4001507E0617845F480157A
:1033B000814202D1641C05F58015641C2278692ABB
:1033C00045D008DC002AB3D0582A69D0632A10D02F
:1033D000642A08D13BE0702A67D0732A13D0752A7B
:1033E0005CD0782A5CD010465A460F999047761CDC
:1033F000D3E017F8040B8DF8000000208DF80100D1
:10340000E946012003E057F8049B4FF0FF306907BD
:103410004FF0000501D40AE06D1C45450DDA8542E8
:10342000FADB19F805100029F6D106E06D1C85427B
:10343000FCDB19F805100029F8D12E4404E019F836
:10344000010B5A460F9990476D1EF8D2A5E00A204D
:103450000021CDE90801C5F3025002280DD001CFAB
:10346000C117031E71F100030DDA4FF0000CD0EB11
:103470000C006CEB01012D2308E0FF1D27F007076E
:10348000F7E80201EDE72B0504D52B238DF8283052
:1034900001233BE0EB0739D02023F7E70A2000E0C7
:1034A00010200021CDE9080107E01020002145F09F
:1034B0000405CDE908014FF00808C5F302500228C1
:1034C0000FD001CF00214FF0000A2B071FD5702A23
:1034D0000DD0DDE908C38CF0100C5CEA030C0CD0B5
:1034E00015E0FF1D27F00707F7E80201EBE7402290
:1034F0008DF828204FF0010A0BE050EA010306D0B6
:1035000030238DF828308DF8292002239A46582A36
:1035100004D024A20DF120090B9209E026A2F9E7BC
:10352000DDE90823FCF761FE0B9B9B5C09F8013D7C
:1035300050EA0102F4D1ADEB090020300890680791
:1035400001D44FF001080899884502DDA8EB01007D
:1035500000E000208046002506E00AA85A46405DAB
:103560000F9990476D1C761C5545F6DB04E0302022
:103570005A460F999047761CB8F10001A8F101084E
:10358000F5DC05E019F8010B5A460F999047761CB7
:103590000899481E08900029F4DC641CC5E6000068
:1035A0000928010030313233343536373839616219
:1035B00063646566000000003031323334353637DD
:1035C00038394142434445460000000070B54FF48D
:1035D000C87210491048FEF7A1FC0F480068C16886
:1035E00041F01001C1600B4D01206872FFF766FACF
:1035F000FFF742FA094E0024305DFEF7C3FE641C5B
:103600000A2CF9DBC82000F00BF8687A002800D0FB
:10361000012070BD6803002058020020D000002067
:1036200070B5054600244FF47A7603E0304600F08A
:1036300005F8641CAC42F9D370BD000071B54FF4BD
:1036400061754FF0E023104E009819E02C46A0421F
:1036500000D804469869614201EBC10110EBC10139
:1036600005D49A69824208DA8A42FADA05E08A19B0
:1036700099698142FCDD9142FADC0098001B0090C0
:103680000028E3D178BD000040190100074810B5BB
:103690000068406864210648FCF77DFDC823BDE84A
:1036A0001040092203490148FEF747BCC801002029
:1036B000A00200202D00002038B504468DF800003F
:1036C0000223012269460248FEF737FC204638BD36
:1036D000C8010020FDF708FAFFF7DEFAFEF7D8FC74
:1036E000FEF77CFDFEF7FAFDFEF714FEFEF752FD35
:1036F000FEF7D8FDFEF72AFE00211848FEF7EEF887
:10370000FFF7AEF8FFF762FF154908704FF47A70C3
:10371000FDF7C8F8FFF7BAFFFFF7ECF9062814D257
:10372000DFE800F013110306090EFCF7B0FD09E015
:10373000FCF7ACFF06E0FCF751FF08B1FCF71AFEFE
:1037400000F010F808B1FCF715FEFFF79FFFFEF739
:1037500043FC0128E0D1FCF70DFEDDE73801002035
:10376000000000202DE90840FEF73AFE0028FBD1BA
:103770000120FEF717FE0028F6D16B4663220021D8
:103780000120FEF747FE08B1002008BD012008BD5A
:10379000010202030405060708090A0B0C0D0E0FAF
:1037A00010100000000000000000010203040607E2
:1037B000080900000000010203040000DC370008D3
:1037C00000000020E0000000EC320008BC380008D7
:1037D000E000002018080000FC3200080000000093
:1037E0000100000010000000000000000024F400B0
:1037F000EFAA130000000013EFAA1200000000124D
:10380000EFAAC10000000101C3EFAAC1000000013E
:1038100000C20000FFFFFFFF0000000000000000EA
:103820000000000023383B607B015211CFAEF22E26
:103830005F87F62EEFBA1B2FBF6EFA2D3FE71C2FC6
:10384000CF07F42EBF2EF42E2FE7082E3FC01F2FD8
:103850009F641E2FBFE0F22E0FB2F42E8FB2D92E2E
:10386000CF9DC22E2FD4F42EEF7FF92E1FA8F22E5B
:103870005F9FF52E5F77FA2E6FBBF32E4F72DB2E14
:103880001FF4C12E6F36892ECFC9912E7F878F2EC0
:10389000FFE3FA2E7F8BC12E1FA8F22EDF55BE2E1E
:1038A0006F55BF2E00000000FFFFFFFF0100071350
:0C38B00000000000001B000000000000F1
:0400000508000131BD
:00000001FF
